{
  "transactions": [
    {
      "hash": "0x34ea96c63c12694d0521a7e994f467bd7f2201817b1fcf738882b5dcd4844171",
      "transactionType": "CALL",
      "contractName": null,
      "contractAddress": "0x968904a7d28510869d2bbcb515ab4e97301a848f",
      "function": "mintNft(string)",
      "arguments": [
        "ipfs://bafybeig37ioir76s7mg5oobetncojcm3c3hxasyd4rvid4jqhy4gkaheg4/?filename=0-PUG.json"
      ],
      "transaction": {
        "from": "0xfbc66bd8466f7b7628fd32f8a8c07f3976c73979",
        "to": "0x968904a7d28510869d2bbcb515ab4e97301a848f",
        "gas": "0x3d60d",
        "value": "0x0",
        "input": "0xda86f4a900000000000000000000000000000000000000000000000000000000000000200000000000000000000000000000000000000000000000000000000000000057697066733a2f2f62616679626569673337696f6972373673376d67356f6f6265746e636f6a636d3363336878617379643472766964346a71687934676b61686567342f3f66696c656e616d653d302d5055472e6a736f6e000000000000000000",
        "nonce": "0x3a",
        "chainId": "0xaa36a7"
      },
      "additionalContracts": [],
      "isFixedGasLimit": false
    }
  ],
  "receipts": [
    {
      "status": "0x1",
      "cumulativeGasUsed": "0x4947c8",
      "logs": [
        {
          "address": "0x968904a7d28510869d2bbcb515ab4e97301a848f",
          "topics": [
            "0xddf252ad1be2c89b69c2b068fc378daa952ba7f163c4a11628f55a4df523b3ef",
            "0x0000000000000000000000000000000000000000000000000000000000000000",
            "0x000000000000000000000000fbc66bd8466f7b7628fd32f8a8c07f3976c73979",
            "0x0000000000000000000000000000000000000000000000000000000000000000"
          ],
          "data": "0x",
          "blockHash": "0xb91b52368c0a846d07c9e26f09c0d90ffd6ed63110cb362cd1b4c4ffdd257ff6",
          "blockNumber": "0x65c0fb",
          "transactionHash": "0x34ea96c63c12694d0521a7e994f467bd7f2201817b1fcf738882b5dcd4844171",
          "transactionIndex": "0x3d",
          "logIndex": "0x33",
          "removed": false
        }
      ],
      "logsBloom": "0x00000000000000000000000000004000000000000000000000000000000000000000000000104000000000000000000000000000000000000000000000000000000000000000000000000008000000000000000000000000000000000000000000000000020000000000000000000800000000000000000000000010000000000000000000000000000000000000000000000000000000000000000000000000000000000000000000000000000000000000000000000100000000000000000000000002000000000000000000000000000000000000000000000000000020000000000000000000000000000000000000008000100000000000000000000000",
      "type": "0x2",
      "transactionHash": "0x34ea96c63c12694d0521a7e994f467bd7f2201817b1fcf738882b5dcd4844171",
      "transactionIndex": "0x3d",
      "blockHash": "0xb91b52368c0a846d07c9e26f09c0d90ffd6ed63110cb362cd1b4c4ffdd257ff6",
      "blockNumber": "0x65c0fb",
      "gasUsed": "0x2c6fe",
      "effectiveGasPrice": "0xab14501",
      "from": "0xfbc66bd8466f7b7628fd32f8a8c07f3976c73979",
      "to": "0x968904a7d28510869d2bbcb515ab4e97301a848f",
      "contractAddress": null
    }
  ],
  "libraries": [],
  "pending": [],
  "returns": {},
  "timestamp": 1726001355,
  "chain": 11155111,
  "commit": "ce1022e"
}